:400000000080002011000000BD0C0000BD0C000008B5044B1A6803F53F5302331A6000F055FE00BFFA46004010B5054C237833B9044B13B10448AFF300800123237010BD92
:400040001882FF1F00000000B0230000084B10B51BB108490848AFF300800848036803B910BD074B002BFBD0BDE81040184700BF000000001C82FF1FB0230000C880FF1FBA
:400080000000000008B5002001F0BEF808BD00BF684620F007018D4619B572B6EFF311841E4B1B68DBB20F2B10D9103B23F0030202F1604202F564421168DB0003F018039F
:4000C000E0229A400A4022FA03F306E00F2B03D1134B1B681B0E00E0002383F31188114A136801331360012B01D101F0AFFF62B6FFF7C8FF72B684F3118801F07FFA094AD4
:400100001368013B13601BB901F0A9FF01F06DFF62B6BDE819408546704700BF04ED00E020ED00E0A882FF1F08B562B645F6BF52074B1A60043B1A6842F002021A601A688E
:4001400042F005021A60002001F046FB00BFFDE714E000E00168002309E001229A40114203D021EA0201016004E00133DBB21F2BF3D900221046704708B501F06FFC01F008
:40018000C1FE00F015FC00F055FC00F001F901F087FB0A4801F0A8FC00F0EAF94FF47A721146042000F0B2FE022000F0E9FD012000F0E6FD01F056FB08BD00BFB423000054
:4001C00000B583B00023019340F2FF1001F042F901A9022001F09EF8019801F06DF804E001A8FFF7B7FF00F0FBF9019B002BF7D1EAE700BF00BFFDE708B5002000F07EFB8C
:4002000018B10121022001F0A5F8012000F076FB18B10221084601F09DF8022000F06EFB18B10821022001F095F8032000F066FB18B11021022001F08DF801F089FB08BD94
:40024000684620F007018D4619B572B6EFF311841E4B1B68DBB20F2B10D9103B23F0030202F1604202F564421168DB0003F01803E0229A400A4022FA03F306E00F2B03D1B9
:40028000134B1B681B0E00E0002383F31188114A136801331360012B01D101F0D7FE62B6FFF7AAFF72B684F3118801F0A7F9094A1368013B13601BB901F0D1FE01F095FECC
:4002C00062B6BDE819408546704700BF04ED00E020ED00E0A882FF1F08B500F07DF808BD684620F007018D4619B572B6EFF311841E4B1B68DBB20F2B10D9103B23F00302B5
:4003000002F1604202F564421168DB0003F01803E0229A400A4022FA03F306E00F2B03D1134B1B681B0E00E0002383F31188114A136801331360012B01D101F087FE62B6D8
:40034000FFF7CAFF72B684F3118801F057F9094A1368013B13601BB901F081FE01F045FE62B6BDE819408546704700BF04ED00E020ED00E0A882FF1F08B501F0D1FD002057
:4003800008BD00BF08B501F0D9FD002008BD00BF08B5012001F038FD012001F03BFDFFF7F1FF01F023FD01F013FD002001F0C6FC002008BD024B1860596000209860704746
:4003C0003482FF1F642800D96420024B18730020704700BF3482FF1F0F4B1A68C2B199685B68994211D210B50B4C4B1CA360505C237B03FB00F3094880FB0320DB17C3EBDD
:400400006010C0B201F09AFC04E00022024B9A6000207047002010BD3482FF1F1F85EB51054A938801339BB25088B3FBF0F100FB11339380704700BF4482FF1F054B9B881D
:400440001BB904494A8813448B80024A9388013B938070474482FF1F38B500F039F90C4DA8710C4CA4FB0031C908012000F0BAFAAB79A4FB0324E40804EB84046100591A76
:40048000C9B2002000F0AEFAA879FFF79BFF38BD4482FF1FCDCCCCCC38B500F0A7F90C4DA8710C4CA4FB0031C908012000F09AFAAB79A4FB0324E40804EB84046100591AA0
:4004C000C9B2002000F08EFAA879FFF77BFF38BD4482FF1FCDCCCCCC08B5074A9188074B03EB0113998811819968D868FFF762FFFFF742FF08BD00BF4482FF1FD0230000F6
:4005000008B5FFF73FFF08BD08B5FFF73BFF08BD08B5FFF731FF08BD10B50F4801F0E4FA002414E00D4B9B889C4203D10C4801F0DBFA02E00B4801F0D7FA23010A4AD058CA
:4005400001F0D2FA094801F0CFFA0134A4B2034B5B889C42E6D310BD6C9F02004482FF1F849F0200889F0200D02300008C9F020070B5104C002525700F4B1B886380A57103
:40058000A580FFF7C9FFA2790C4EA6FB0213DB0803EB83035900511AC9B2012000F022FAA179A6FB0131C908284600F01BFA284670BD00BF4482FF1FCC230000CDCCCCCCDB
:4005C000024A1389013B1381704700BF4482FF1F024B1889B0FA80F0400970474482FF1F10B50446394B1B78012B1ED013B1022B59D069E010F0010F04D0FFF71FFFFFF76C
:400600008BFF61E010F0020F04D0FFF709FFFFF783FF59E010F0080F56D0FFF75DFFFFF77BFF0122294B1A704EE0002000F066F9012806D140F2E1131C4202D02046FFF7EC
:400640000BFF012000F05AF9012806D114F4F17F03D02046FFF720FF36E014F0080F05D0FFF752FF0222194B1A702DE014F0100F05D0FFF745FF0022144B1A7024E014F095
:40068000040405D0FFF7A4FF10B9FFF799FF1BE0D4B1FFF79DFFB8B1FFF7C2FEFFF71CFFFFF73AFF10E010F0080F05D0FFF730FF0122064B1A7007E010F0100F04D0FFF72D
:4006C0001FFF0022014B1A70002010BD4482FF1F08B510F4807F2AD040F6B8321146032000F014FC404B1B784BB94FF4FA721146002000F00BFC01223B4B1A7009E0012B38
:4007000007D164221146012000F000FC0222364B1A70354B5B78622B03D80133324A53705FE0632B5DD100222F4B1A7059E02E4B1B78012B10D110F0200F0DD02A4B5B78D3
:40074000622B03D80133284A53704AE0632B48D10022254B1A7044E0022B10D110F0400F0DD0214B5B78622B03D801331E4A537037E0632B35D100221B4B1A7031E010F089
:40078000800F19D04FF47A721146022000F0BEFB002240F6B831032000F0B8FB124B5B78622B03D80133104A53701AE0632B18D100220D4B1A7014E010F0010F11D00A4BD1
:4007C00000221A705B78622B0BD80133064A5370022000F049FB00224FF47A71022000F095FB014B587808BD4E82FF1F08B510F4807F29D040F6B8321146032000F086FBE8
:400800003D4B9B784BB94FF4FA721146002000F07DFB0122384B9A7009E0012B07D164221146012000F072FB0222334B9A70324B5B781BB1013B304A537059E0002B57D1C6
:4008400000222D4B9A7053E02B4B9B78012B0FD110F0200F0CD0284B5B781BB1013B264A537045E0002B43D10022234B9A703FE0022B0ED110F0400F0BD01F4B5B781BB124
:40088000013B1D4A537033E093BB00221A4B9A702EE010F0800F17D04FF47A721146022000F034FB002240F6B831032000F02EFB114B5B781BB1013B0F4A537018E0BBB959
:4008C00000220D4B9A7013E010F0020F10D00A4B00229A705B785BB1013B074A5370022000F0C2FA00224FF47A71022000F00EFB014B587808BD00BF4E82FF1F08B5032831
:400900001BD8DFE800F002080E1401F019F8012815D0002008BD01F021F8012811D0002008BD01F023F801280DD0002008BD01F025F8012809D0002008BD002008BD012001
:4009400008BD012008BD012008BD012008BD00BF38B504460D46032824D8DFE800F00209101E084601F012F8104B1D55002038BD084601F017F80D4B1D55002038BD0846FA
:4009800001F01CF8094B1D55002038BD29462046FFF7DEFF0134E4B200E00024022CF5D9002038BD6FF0130038BD00BF5482FF1F38B50024254609E00021094B1955204607
:4009C000FFF7C6FF00B105460134E4B2022CF3D901F092F901F048F901F0FEF8284638BD5482FF1F0F290ED838B50C46054600F095FF064B185D064B5C55064B585500F0AD
:400A000099FF002038BD6FF0130070470CA00200CC80FF1F5882FF1F08B5FF22044B1A5400F07CFF002000F085FF002008BD00BFCC80FF1F08B50020FFF7EEFF0120FFF751
:400A4000EBFF002008BD00BFFEE700BFF0B40022174611E050F82760F3B226F0FF0608E001EB420511F812406D78A5550132013BDBB2002BF4D10137202FEBD9F0BC7047B2
:400A8000064B1B78DBB203F00701054A11701B09013213704422034B1A707047CF0100496E5800407658004008B50A46002101F076FC08BD38B500242A4B1C8058220233D7
:400AC0001A70012202331A801823274A1370022226490A8002310B70192502310D8002310B70234B1A7008224FF040231A70032103F5007319701F4B1B78DBB21E490B7002
:400B00001E4B1A8041F25122023B1A800CE01C4B1B7803F0010343EA440404F003044FF4F07001F019FB013D0DB1032CEFD115B90320FFF789FF134B4FF480721A80072290
:400B40001A70002210490A704820023108701A700222033B1A700D4A137843F00D03137038BD00BF8040004086400040884000400043004008010049A14600402242004063
:400B8000254200400440004006400040A243004008B501F0F9FB08BD38B572B600240CE0344D630019194A0011462A44084691882858FFF779FF0134E4B2072CF0D900246E
:400BC0000BE02C49A3001819420088180622416B006BFFF7DDFF0134E4B2002CF1D026494FF09040FFF732FF244A137843F0020313701032137843F002031370204C23782E
:400C000043F040032370A2F58632513A137843F01003137008221B491B48FFF7B9FF0A221A491B48FFF7B4FF08221A491A48FFF7AFFF082219491A48FFF7AAFF0822194997
:400C40001948FFF7A5FF194A137843F008031370174D61232B70FFF72DFF81232B700122144B1A70FFF70CFF0E2221461248FFF78FFF38BD20A0020084000048035001404D
:400C8000A0430040580700480251004060070048C05100406C0700481251004074070048225100407C07004832510040224300400048004004000840B043004008B501F01B
:400CC00037FB03680C2B00D1FEE7FEE708B5104E104D16E029686B68AC68002204E051F8040B43F8040B0432A242F8D1E868002203E0002143F8041B04328242F9D110353B
:400D0000013E002EE6D101F019FBFFF70DFAFEE701000000A8A2020008B5104A104B1A60104A136843F40073136000230AE0032B03D80D4A52F8231000E00C490C4A42F8CE
:400D4000231001332F2BF2D90A4B1A780A4B1A70074A0A4B1A60FFF71FFF08BD0004FA050CED00E014ED00E000000000BD0C00000080FF1FBC760040C080FF1F08ED00E05F
:400D800038B5EFF3108572B602284ED82D4B53F82030002B4BD02B4A013B42F820302A4B53F82030032B07D10222274B43F820200022264B43F8202000F090FC244B1B6820
:400DC000002B36D1234B1C6800F066FCB0F1FF3F31D0214B53F82020204B1B689A422CD9B4F1FF3F03D00221174A42F824101C4A52F820201343194A13600022124B43F859
:400E0000202000F005FC174B53F820304BB10024144B43F8204040F0004001F029F920460CE001F025F9002008E0032006E0042004E0002002E0002000E0002085F310883B
:400E400038BD00BFFC80FF1F9881FF1F7482FF1FA882FF1F8881FF1F4CA202008882FF1F40A202005C82FF1FEFF3108272B604283CD803012249CB58002B39D010B400EB21
:400E800040018B001F49CC581F4B03EBC4035968884209D11A4B03EB0013D9681A4B03EBC40461600DE01946154B03EB0113DB689842F8D1124B03EB0014E46803EB011194
:400EC000CC600F4B03EB0013DC68B4F1FF3F08D00B4B03EB0011896803EB04139C6821449960030100200649C85005E0032000E0052082F31088704782F3108810BC7047D3
:400F00009083FF1FCCA10200D080FF1FF8B5EFF3108472B6042825D800EB4005AB00184DEB5803EB4306B500164E75598D421BD34AB103EB43039E00124B1E44B3689A424E
:400F400014D3954214D3A9B103010F4DEB589BB90301EE180127EF507260013900F086F800200AE0032008E0082006E0082004E0082002E0082000E0072084F31088F8BD64
:400F8000CCA102001CA202009083FF1F18B108B5C368984708BD704708B508B1406800E00020022816D80C4B53F8203093B10A4A013B42F82030094B53F82030032B07D14A
:400FC0000222064B43F820200022054B43F8202000F084FB08BD00BFFC80FF1F9881FF1F7482FF1F18B1034640689B6801E00023184602281DD80F4A52F82020CAB10E4A48
:4010000052F82010032914D010B50C4C54F820201A4344F820200A4A52F82020134207D0012905D10222044B43F8202000F056FB10BD704728A202009881FF1F7482FF1FD0
:401040006882FF1F80B108B50378012B06D013B1032B06D008BDFFF79FFF08BDFFF7C2FF08BDFFF793FF08BD704700BF30B400EB40029300214AD258214B03EBC2035C68BC
:40108000B4F1FF3F04D11E4B03EBC20250602DE01C4B03EB04139B6899420AD2184D05EBC2025060174A02EB04125B1A93601DE01C46144B03EB04139A68891ADB68B3F196
:4010C000FF3F05D00F4A02EB031292689142EFD2B3F1FF3F05D00B4A02EB031295686D1A9560084A02EB0414E0601C46054B03EB00108160C46030BC704700BFCCA1020050
:40110000D080FF1F9083FF1F38B5394A02EBC0035C6852F83030013342F8303000EB40018A0034498A58934203D90022304B43F83020B4F1FF3F59D02F4B03EB04139B6838
:40114000002B4ED1214600E019462B4B03EB0113DB68B3F1FF3F05D0274A02EB03129268002AF1D0244A02EB01114FF0FF32CA601F4A02EBC0004360B3F1FF3F07D01E4AD4
:4011800002EB03139A68013A9A6000E02C4604EB44029300194A13441B7A7BB904EB44029300164A13445A68154B53F8223003EB83039A0013481044FFF744FF0E4B03EBDD
:4011C0000413DD68596821B101392046FFF74EFF03E024010022084B1A51B5F1FF3FD5D138BD054A02EB0414013BA36038BD00BFD080FF1F1CA202009083FF1FCCA10200A1
:4012000008A2020068A1020038B5EFF3108572B6002838D1FFF778FF204B1B68002B34D11F4B1C6800F038FAB0F1FF3F2FD01D4B53F820201C4B1B689A422AD9B4F1FF3F22
:4012400003D00221194A42F82410194A52F820201343154A13600022144B43F8202000F0D7F9144B53F820304BB10024114B43F8204040F0004000F0FBFE20460AE000F02C
:40128000F7FE002006E0032004E0002002E0002000E0002085F3108838BD00BFA882FF1F8881FF1F4CA202008882FF1F9881FF1F40A202005C82FF1FEFF3108372B6114AB0
:4012C0001168114A126882B9B1F1FF3F0FD00F4A52F821206AB110B40D4C54F8212022EA000044F82100002007E0022002E0022000E0012083F31088704783F3108810BCC7
:40130000704700BF8881FF1FA882FF1F28A202007482FF1F02280FD80B4B53F820306BB10A4B53F82030032B0AD059B1084B53F820300B60002070470320704701207047E6
:40134000072070470E20704728A202009881FF1F7482FF1F38B5EFF3108472B6022853D8324B53F82030002B50D0314B53F82030032B4DD02F4D55F820200A4345F820201B
:401380002D4A52F82020114244D0012B44D10222274B43F8202000F0A1F9284B1B68002B3CD1274B1D6800F077F9B0F1FF3F37D0244B53F82020244B1B689A4232D9B5F105
:4013C000FF3F03D002211A4A42F825101F4A52F8202013431C4A13600022154B43F8202000F016F91A4B53F820304BB10025184B43F8205040F0004000F03AFE284612E0A1
:4014000000F036FE00200EE003200CE001200AE0072008E0002006E0002004E0002002E0002000E0002084F3108838BD28A202009881FF1F7482FF1F6882FF1FA882FF1FBA
:401440008881FF1F4CA202008882FF1F40A202005C82FF1F38B5EFF3108472B6364B1D68364B1B68002B5DD1B5F1FF3F5CD0344B53F82530002B59D0324B53F8253003427A
:4014800056D1314B43F825000122304B43F825202F4B53F825002F490B6823EA00030B602D4B43F825202D4B53F82520224B1A6000F0F2F8B0F1FF3F06D0294B53F8202046
:4014C000244B1B689A420DD81B4B1868B0F1FF3F03D000221D4B43F8202040F0004000F0C7FD1AE00021194A42F82010184A52F820201343174A136000F08AF8164B53F85C
:40150000203043B10022144B43F8202040F0004000F0AEFD01E000F0ABFD00200A4B43F8250006E0022004E0022002E0012000E0002084F3108838BD8881FF1FA882FF1F8E
:4015400028A202007482FF1F6882FF1F9881FF1F40A202008882FF1F5C82FF1F8C81FF1F4CA2020008B500F053F8084B53F8203043B10022054B43F8202040F00040044BA3
:40158000186008BD024B186008BD00BF5C82FF1FAC82FF1F10B500F07FF8124B1B68B0F1FF3F1AD0104A52F82010104A1268914213D9B3F1FF3F03D002240D4941F8234054
:4015C00000210B4B43F820100A4B53F820301A43064B1A60FFF7C6FF10BD43F00043064A136010BD8881FF1F4CA202008882FF1F9881FF1F40A20200AC82FF1F034B1B68EC
:4016000013B10022014B1A60704700BF9C82FF1FF0B4184B19880B0A174AD356B3F1FF3F01D1535601E008335BB2144D55F82320134850F82200134E56F8224045F8234018
:40164000114D2F6846F822702A60B4F1FF3F09D10E4A42F82340012202FA03F321EA0301044B19800A4B19680A4A42F820101860F0BC70478482FF1F5CA002004881FF1FE5
:401680007883FF1FE480FF1F8082FF1F0881FF1F8881FF1F8C81FF1F0C4B1A88130A0C49CB56B3F1FF3F01D18B5601E008335BB2B3F1FF3F06D0074A52F82320064B53F8FA
:4016C000220070474FF0FF30704700BF8482FF1F5CA002004881FF1F7883FF1F30B4144B53F82020134C2368134951F823502560124C44F823004FF0FF3441F82340104992
:4017000051F82210A1420AD10E4951F820400E480188214301800D4941F8223002E0064840F82130064941F8223030BC704700BFF080FF1F8082FF1FE480FF1F7883FF1F8D
:401740000881FF1F4CA202008482FF1F4881FF1F10B150F8210070474FF0FF30704700BF0122014B1A60FEE7A482FF1F70B50546124B53F8306000241CE0104B03EBC50317
:4017800021465868FFF7E4FF0D4A52F82030013B42F820300B4B53F82030032B07D10222084B43F820200022074B43F82020FFF795FF0134B442E0D370BD00BF5CA1020047
:4017C000FC80FF1F9881FF1F7482FF1F18B908B5FFF7CCFF08BD7047194B1A4ADA621A4A9A631A4ADA63EFF3108272B6184B1B6813BB10B5044600F053F8164B1C60012299
:40180000134B1A602046FFF7E1FFFFF745FFB0F1FF3F0ED0104B53F82030104A11680B43136000220E4B43F82020FFF7F1FE00F01FFC62B6FFF794FF82F3108807207047A1
:401840000080FF1F31200000F51F000091000000A482FF1FE083FF1F40A202008882FF1F9881FF1F08B5EFF3108272B6094B1968094B1B6833B94FF0FF30084B43F82100BE
:40188000002000E0022010B9084600F04AFC82F3108808BD8881FF1FA882FF1FD880FF1F38B5184B1D68EFF3108472B600F090FB154A136843F07F431360144B6B64144B45
:4018C0001A6822F460421A601A6842F400521A60A3F540731A6842F002021A600D4AC5F884200D4A116821F460411160116841F4005111601A6842F400321A6084F31088A1
:4019000038BD00BF08ED00E020ED00E04102000000E400E0E102000010E400E0044A137803F0DF03400100F0200018431070704730510040014B1870704700BF79650040B9
:40194000024B1878C0F3C000704700BF015100400222014B1A60704780E200E0024B1878C0F30010704700BF01510040024B1878C0F34010704700BF01510040024B1878BF
:40198000C0F38000704700BF31510040044A137803F0BF03800100F0400018431070704700510040044A137803F0FE0300F0010018431070704700BF20510040044A1378C1
:4019C00003F07F03C001C0B218431070704700BF0051004008B572220B4B1A702022013B1A700A49002000F0C7FA0721002000F0D7FA0622064B1A70472210331A7002229A
:401A00004E331A7008BD00BF886500400D1B00002765004010B500F0A7FB04460D4A137843F020031370013A137843F010031370023A137843F0100313700123064A136094
:401A4000A2F5C072136000F087FA204600F090FB10BD00BF9865004080E200E008B5054B1B7823B9FFF7B6FF0122024B1A70FFF7D1FF08BD9082FF1F164B99785B78DBB21F
:401A8000994205D25A1E914214BF0022012204E0CA1AC72A14BF00220122002AECD1994207D10D4B1B7813F0040F02D10B4B18707047C72900D90021094B58540131054BD1
:401AC0009970054B1B7813F0020F02D00122054B1A6070479082FF1F6565004046650040E485FF1F00E200E038B5074B1B782BB938BDFFF7C1FF0134A4B201E005460024C6
:401B0000285D0028F5D138BD9082FF1F13E0104B1B78DBB2C72B02D900220D4B1A700C4A1378DBB20B49CB5CDBB20B490B7013780133DBB21370064B1B78DBB2074A12786E
:401B4000934204D0064B1B7813F0040FDFD070479182FF1FE485FF1F466500409282FF1F65650040024A137843F08003137070477C640040014B1880704700BF186800407C
:401B8000014B1880704700BF98680040014B1880704700BF5868004008B50E4A137803F0C00343F0090313702032137843F0010313700132137843F0010313704FF6FF7056
:401BC000FFF7D8FF4FF6FF70FFF7DAFF0020FFF7DDFF08BD7C64004008B5054B1B7823B9FFF7DAFF0122024B1A70FFF7BBFF08BD9482FF1F024A137843F080031370704709
:401C00007F640040014B1880704700BF1C680040014B1880704700BF9C680040014B1880704700BF5C68004008B50E4A137803F0C00343F0090313701F32137843F001033C
:401C400013700132137843F0010313704FF6FF70FFF7D8FF4FF6FF70FFF7DAFF0020FFF7DDFF08BD7F64004008B5054B1B7823B9FFF7DAFF0122024B1A70FFF7BBFF08BDD1
:401C80009582FF1F024A137843F080031370704776650040014B1880704700BF106A0040014B1880704700BF906A0040014B1880704700BF506A004008B50E4A137803F07E
:401CC000C00343F0090313702232137843F0010313700132137843F0010313704FF6FF70FFF7D8FF4FF6FF70FFF7DAFF0020FFF7DDFF08BD7665004008B5054B1B7823B9FC
:401D0000FFF7DAFF0122024B1A70FFF7BBFF08BD9682FF1F024A137843F080031370704776640040014B1870704700BF06640040014B1870704700BF46640040014B187052
:401D4000704700BF26640040014B1870704700BF86640040014B1878704700BF66640040014B1878704700BF5664004008B501E0FFF7F6FFFFF7EEFF10F0100FF8D108BDEE
:401D800010B5114A137803F0C00343F0090313700E4C237843F001032370FF20FFF7C2FFFF20FFF7C5FF0020FFF7C8FF0020FFF7CBFF00F0D9F9237843F01003237000F0AF
:401DC000D7F9FFF7D3FF10BD766400409664004008B5054B1B7823B9FFF7D2FF0122024B1A70FFF797FF08BD9782FF1F054A137843F0010313701032137843F0010313704A
:401E0000704700BFA2430040014B1870704700BF7D640040044A137803F0FD03400000F00200184310707047C0510040084A137843F0010313701032137843F0010313709D
:401E400002F64D32137843F001031370704700BFA3430040014B1870704700BF034F004010B50446094B1B7813F0010F02D0002000F080F8054B1A7842F001021A70044ADC
:401E800014801A7802F0FE021A7010BDA3430040064F0040014B1880704700BF044F004008B5164A137803F0010313700232137803F0FC031370013A137843F00103137035
:401EC0000F4B1A7802F0CF021A701A7842F030021A701A7802F0F0021A701A7842F00F021A704FF4FA70FFF7D5FF4FF4FA70FFF7B7FF0820FFF7AEFF08BD00BF004F00401C
:401F00000B4F004008B5054B1B7823B9FFF7C8FF0122024B1A70FFF789FF08BD9882FF1F054A137843F0020313701032137843F002031370704700BFA2430040054A1378C7
:401F400003F0FD0313701032137803F0FD031370704700BFA2430040054A137843F0080313701032137843F008031370704700BFA243004001BE704770B504460E46074BBE
:401F80001D681F2802D90020FFF7F4FF04F01F04103455F8240045F8246070BD08ED00E038B504460D46072902D90020FFF7E2FF1F2C02D90020FFF7DDFF04F01F0000F13A
:401FC000604000F564406D01EDB2057038BD00BF18484FF47F0102680A43026016486FF07F4102680A400260704714484FF080510160704772B611484FF000610160FFF7F0
:40200000C9FA0F48006800F0D3F858B10C4800684FF080730B4A0C490FB40FB46FF00600004700BF6FF0060062B6004762B600DF08B0704720ED00E01CED00E004ED00E000
:40204000AC82FF1F712000002D200000EFF30880054908600548006880F3088870470248006880F308887047B081FF1FA481FF1F411C8900154A11440968154A13689942E9
:402080001AD0F0B444464D4656465F46F0B400B5104C9B002344EFF308851D60116089002144096881F3088802BC8E46F0BCA046A946B246BB46F0BC002806DB00B500F057
:4020C0006BF802BC8E46FFF7D3BF704770A202008C82FF1FA881FF1FF0B444464D4656465F46F0B400B5EFF3038308B48000174901440968164A0244EFF3088313608847BB
:402100001448804704BC4FF08070024382F3038801BC8646F0BCA046A946B246BB46F0BC704780000A4901440A6882F3088804BC4FF08070024382F3038808BC9E46F0BCCB
:40214000A046A946B246BB46F0BC704758A202008483FF1F792100000230800803D000BF01380046FCD17047EFF3108072B6704780F31088704700BF08B572B6014B1868A1
:40218000FFF7CFFF8881FF1F08B5024B1868FFF7A3FF08BD8881FF1F08B562B6FFF7F4FF72B600F041F8014B186808BDAC82FF1F00280BDA20F000400130054B53F82000F1
:4021C000044B1B68181A18BF012070470120704770A202008C82FF1F054B53F82020054B53F820309A4201D10120704700207047FC80FF1F34A2020008B5FFF709FA084B76
:4022000053F8203043B10022054B43F8202040F00040044B186008BD024B186008BD00BF5C82FF1FAC82FF1F38B5364B1C680022354B1A60354A52F82430013342F82430A8
:40224000334B53F824502046FFF7C6FF012801D0A54204D103222F4B43F8242003E002222C4B43F824202C4B53F824102B4A136823EA010313602A4B53F82440214B1C60B9
:40228000B5F1FF3F0FD0234B53F82530032B07D10222204B43F825200022224B43F825202846FFF71BFAFFF7F7F9B0F1FF3F0BD1B4F1FF3F03D00022164B43F8242044F023
:4022C0000044194B1C6038BD184B53F82020134B1B689A4208D800220E4B43F8242044F00044114B1C6038BD00210A4A42F82010094A52F820201343084A1360FFF77CFFB3
:4023000038BD00BF8881FF1F9C82FF1FFC80FF1FD880FF1F9881FF1F40A202008882FF1F8C81FF1F7482FF1FAC82FF1F4CA20200014B1868704700BF1482FF1F0E4B70B544
:402340001E460E4C0025E41AA410A54204D056F8253098470135F8E727F094FF084B094C1E46E41AA4100025A54204D056F8253098470135F8E770BD90A2020090A2020002
:4023800090A2020098A2020010B5431E0A44914204D011F8014B03F8014FF8E710BD03460244934202D003F8011BFAE770470000000000004D503320506C61796572207371
:4023C0007461727465642E2E2E0A0000030000000024000007000000646C0100083301001C240000020000000000000000000000382400000A000000AF0E010058240000A8
:4024000056616C65726965202D20416D79205768696E65686F75736500000000426F786572202D2053696D6F6E20262047617266756E6B656C000000436173746C65206F9E
:402440006620476C617373202D204C696E6B696E205061726B0000008183868C9295969595989896939191918E8A86817A74716F6E6E6D6C69635C57545152555B62676B57
:402480006E707275787E8489898A8D8F8B80756D696664656A71746F6663666B6D6D6D7074787B7E838A90939395989EA1A19C958E888280848B9294928D8884828487871F
:4024C00084807F807F7A73707175797B7D8084888A8D8F919293969AA0A5A9A9A49D97928E8987898B8B86817E7A73695D55565D68727A80817F7B78797D848B91939599F2
:402500009EA2A5A5A29C9692908C857C746E6C6966635F5B5756565B61666C737878736D69686868696B717A848B8C8985827F776D645F5C5A595857585F6974797A797B96
:40254000818991938F8B8B90989FA4A5A29F9E9D9C9EA09E9A9694908B837C777474767775737375777A7E8184888C8D8A847F7D7D7F82878E97A0A9AEADA9A5A3A09C9AD6
:402580009897969696938C7F6F6159555253565B5F6162666E767A797578838F9DA6ACB2B2AEA89F97918E8D8A86837E746A645E55473C3A404A54595C5F616263636361CD
:4025C0005D5D656F767877787B7D7E7C7B7C7B7A7A7C7E7B73717376797B80868A8A8C8D8A89898B8D9096A0A8ACADAAA69F9A9B9FA09E9995938F8C8D8B858281807C7843
:402600007675726E6C6F7479818C9496938F8A88878A8E8E92989FA5A9ADB4B9B9B2A5998D837C776D625A544F494545474D565B5F6368707A8083807B7C838C969C9EA29F
:40264000A5A8A9A3A2A6A7A195857565574D453B34333A434A55616D767A78746F6B6B675E56545B666C70757C8388868077717073777C858886817E838683807E86919711
:402680009CA2A6A7A6A2998B7D7E8587898E9BA9AEADAAA7A6A8A7A2978D8B8882786D645E5D636D7884909A9E9D9A989187817D7A7875788291A3B1B7B8B3AAA39D958ED3
:4026C000857C7673706553443C3B40454B52585D64727C7C767073777A7E878F939599A2A5A7A7A5A198918F877B75726F6A635F5F5E5A57596267656666625F5D5A5751D1
:402700004E52575F6773828D92908C8784817C757172757A7D8083878D91929291929192989DA0A2A1988D8585878A91979CA0A09D9B9FA3A39E958F8F93938B8179727275
:40274000777F84838590989891867B7068605B5A59606D7A8797A6B3BABDBCB5A795857E787472706E686465676561584F4A4B515C676F767D84837F8083848181868C8D60
:40278000939EA29D9996918C8A8A8D877A6F6B6E6C6C6D6B676564615D5A5B5B544C4645494F55606C747B838383858789867D787A7F817D7D7F80818485817C7B8AA1AE0B
:4027C000AEA69E99928579716D727D8A969EA29F999AA2A5A19D9DA3A5A19B948C8276706B666C7782888E979D9B92888077706F727B8795A4AEB2B0A89D948F8E8D8D8D2C
:4028000087817C77706B69656462636B72726C625D5C5E5F5D5C606568696C717B82848A909192949BA5A59B8D82786F6A6A6D71787F817E71625753555A5B544C4A4E5588
:40284000575A5D5F636E7A82827D7D7D7B76716D6C6D71787E868B8F99A0A19C969088878E93959289817C7A7C8893999FA6ACAEAFB0AFADABAAA6A09B9A9C95887E76700C
:4028800072787E7F7C7D83898E8D8A877E75727272767E8B99A1A19A918A87857F777371706F6D70777976706A64615E5C5B5855585F676E71717173757B84898991A2AD87
:4028C000B0ACA9A5A2A0978979706E6D6B70767C7F7F7F76695D54555856565C61615F606263656A6964666D757C7E777472706B6A737D838B959A97928F8F9091959A9C53
:402900009C9B9A968C827E7F8187929EA4A4A7ABABA8A8ADAEA7A5A49A8E857C776F656163656A737E8689838082817B777774707179838D91969CA0A4A49B8F8681858ECA
:40294000908F8E8F8A80756A605A5B626B70716F6F69625F5F5F5C5C5F6267707D88939FA7A69F999793908D88847F77706C6B67606066696A67615D5853504D4B4D515700
:402980005F666C747B7D808486837C75727071757B8286898D8F8F9191929395999A968E88828084888B8A8586909FA6A5A39F98959CA5ACAEAFB0ACA193877B6C636267B7
:4029C0006F747C86909490888074665E5E66727E8B979FA1A1A0A09D9D9C9C9E9E9B958E8C8F8C816F5F5A5E636668676562605F5D5C5A595E64656564666B7784929FACCA
:402A0000B1B2B0A89D958D847C756E68646161666C6E6D6B675F57514E4F52555A5F64696C6E737F8C959997938D878483837F7975717274757371757F878A87817E808164
:402A4000838381807F8083888F989EA4A7A7A5A3A4A7A6A29D979290918F877D7A7E878F939596938D877E77716F7276787E8A94979797989DA2A39F98928D8A888A8D93A4
:402A800097978F82786F676160615F5C5B5A5754525153565C656B7074787E8993999E9E99948E8B878685817D7B7B78726F706E6965635F58514F504F4E4F555C60636965
:402AC000727D878F908A817A76757677797C7D7C7A78797C7E7E7D7D7E7E80848686848589929A9E9D9C9B9C9FA5ACB3B6B6B2ACA7A4A19D999695928D82756C6A6D748139
:402B00008C918F898077716C6B6E72798590979C9E9FA0A3A5A49E978F8986868586878886817B746B625F5F5F5D5A57575A5D5E5D5C5D5F62666B7482929DA1A1A3A5A3F0
:402B40009E9892909091908C847B737173736C625B554F47444447494C515556585F68717A848F94908A8179787D84898B8A8885817D7C7A77777A7D7F838688878483869D
:402B80008B8F94989DA4AAAFB1AEAAA8A7A5A09C989696989998938B80756F71777D838888837D777473727171737A8793999C9FA0A19F9B948F8D8C8E929798958F898530
:402BC00083817C7775736E665C56504B494A5056595957585D66717F8C969B9EA0A19F9C9B9A98928B84807C7977777A797168605A524B453F3A393B3F444A5361758A9774
:402C00009D9C958C8686888A89857E787676787B80868C90908B837D7B7D82878B8F90908E8D8E9092959CA7AFB2B0ACA7A3A2A2A2A1A1A09E988F867C78797B7F8387860D
:402C40007F766F6C6D7071706E717B8A99A3A6A39E97908D8D8F8E8C8B8A8A8A8B8B88827C767374736E645B57585B5C5A56514F4F5156606C7A89959A989595989A9DA137
:402C8000A2A09A938C86817D7A78787570696258525255585956545656575D6671797C7E7F7E7A7979787675787D83898B888584838485837E7A797B7F83858687898C9008
:402CC00093979B9EA3ABB0ADA49E9B9998999DA2A7A8A59B8D837C797A7F8282807F7E7C7B7C7E7E7D7B78777984929DA2A09B958F89868687898C91959796918A81787146
:402D00006C69686764605F5F5F606061615E5B595C63707C848686858484888E94999C9D9B948D867F7C7D7F807D766B625E5C5C5D5B564E4642454C56616A7175777B7FBA
:402D40007E7A77797D8184898C8D8985828182848789857F7B7A7876787D848B9194979A9C9FA0A2A7ACABA7A4A4A5A7A9ABACABA79E9287807D7F82827C747072777B805C
:402D80008383817A7471727782909CA4A7A49F958982808185898C8E8E8C8B8A857D75706F706E675F59575A5D5F5F5E5E5E5F61656D7780868989898B929DA3A4A29C945A
:402DC0008B847F7C7B7C7C7A736D6A6B6C6B67635E59524D4C4F565F6872787B7C7F817D777475797C7F7F7D7A78787878797B7F82817E7D7D7B787677797C7F848C959D6C
:402E0000A4A8A9ABA9A29A989CA2A7ACAEAEAAA2968C87878786827D787475797C7D7F80807D7875777B8189949EA5A6A19A918885898E929595938F8A85827D76716D6D2E
:402E40006D6D69635D59575758595A5D626870787E81807D7A797A818C969B9D9D99928C8783817F7D79746D6A6A6D6F6B635B5552505154575C646E777C7F7E80828280C7
:402E80007E808284868684807F81838383827F7C746D6C6F73767A8085898C90979C9F9F9E9EA0A09D9B9FA4A7A7A6A7A6A39E9994918E89837A6F6560646C757A7D7E7D08
:402EC0007A777574777F8A97A0A5A6A39F999493959796918D8A8785827D73675E5D60626363666B6E6E6C67615D5C606870777C7E7E7E7F828A959EA3A39F9A9693918D9F
:402F0000867D746C655F5C5E656D716E6864605B5551525760686D71747575777D82868B9091908D87807B787879797A7977726C686A6F7476797C7E80838B949A9B9B9B09
:402F40009A9B9B9B9EA6AEB1B2B3B4B2ACA59D958D857D76726F6E70757B7F838484827D79787B8189909598989798999896989B9F9F9D97908A85827E75695F5A595A5C8D
:402F800061676966625E5B5B5E62676B6E70737577797C828C959A9B9793908F90908C847A716A666361636971736F6863605C5A5A5E656C717576747170767F888F939403
:402FC000928D867E777474747473727071727071777E7F7C7A7B7E848D989E9F9D9B98979696989DA6ACAEAEAEAEADACA8A0958A8179726C67656970777E838584817E7DF9
:403000007E8082858A9096989B9D9E9C9C9E9E9B958D87838283827E7368605E6164686D71716D6A676667696B6D6D6D70747878787B848E929293969A9B99948C81776C7A
:40304000625A56565A636E7676716B65615D5C5F64686C6E6E6B696768707C858C91928D867E7A797B7D7A746E6B6D707171767D817F7A787A7E858E979EA09E9C9B9A9B6F
:403080009EA2A6A9ABADAEAFB0B0ADA9A29B92877C736D6B6E73777A7D7F7F7E7C7B7B7D808487888A8B8E949CA0A0A0A09C96908C8B8B8A8781776B605A5A5D62676B6CF0
:4030C0006A6765646365686B6E6E70767B7E7D7C7E8387888A8C8E909293918D857D746C635B585D687378766F69635E5B5A5D62676C6F7171727479838D959898938B8639
:403100008483817F7A746F6E6F72757474797E7E787272767C838A90929291919293969BA1A6A9ADB0B1B0AFADAAA69F968A7F77726F6F73777A7E81817E78747374787DFA
:40314000818283848B97A2A7A6A2A09D97928F8D8C8A88847D736A6565676B6F7374726E696666686969676462666E74787C81888E90909192939496989792887C70635863
:4031800053555E69717574716D6763616164686A6A6866676A717981888C8F8F8C8B898987847F78716B68686A6C6C6E6F6C6763666D767F878F949798989898999DA4ABE6
:4031C000ADADAFB0B0AFAFAEAFAEA99F91847A736E6F74797B7B7C7E7F7D7A79797B7B7875777D89959DA2A3A29F98959596969594918C80716661605F5E6064666463641B
:40320000686B6C6B69676669727A7D7C7E858B8B8683858B9192919091908B8174665D5B5F666D71736F665E5B5E646869696A6A6B6F757B7D80878E939491919495928B4C
:40324000827B756E68686C73777675726D66656B737A7D81868A8B8B8C90989CA1A6A8A6A6A7A7A6A8ACB2B5B2A898867A74706F6F7276797A7C7C7D8183817B726C6F7735
:403280007E848B96A3ABACA8A19E9D9B97908B878581796F66626365686B6A6A6D7376746E6967666565676D747E898F8E8A898D94989692939AA19F928071655952555D2A
:4032C000676C6E6D686464686D6E67605F646B6D6D717982837E7B7F868A8C8A888A8982796F6B6C70767D7D7268656464615F65727F83807C8390999C9BA0ACB3B2B2B6FD
:40330000B8BAB7B2B1B2B0ADA5998C7E74747B7E776C676F7B8485807C7D7E7A7572757E88929A9C9FA29F99928F8F908F8A837D7D8286857E736C6B6A645A586169665A43
:4033400051545C6060626B7C8B908D8884868B8F918E8B919EA7A08E7D726F6C666162696E6A615A5D67727A7A736962616161646D7780868A8D8C8C939B9D978A807C79E9
:40338000726B696D7A827D746C6969676464686B6E747C85898D939DA7ACABA8AAB1B2AA9E99A1ACB2B0A69D948D86807D75695F5D636665666E7B817A706D75828681826B
:4033C0008D9EA8A7A199969AA1A49D938A8B91928E8686898375655C5D63676765666B71736C635F697984847B7578808482818693A0A39F98949288786A656868636264B0
:403400006767686B7175716C68686C6862657382867B7075838D8D85858E97979089837F7B7876716D68635D5552535D6C7576706D747C8080808A9DB0B8B3B1B7BCB7AA33
:40344000A2A5B0B7B0A09897979083776E6966646A6C6A6B76858C847978879591837F8A979D9A989FA8A9A49B969697958B84807C776D66615D5E5E5E63686A686463649B
:40348000635D5C6773766C6366727D808189969E9B959395938575737C7E766B696F73706666707A7C767170706C65656D7676706E7A899292929DA8A49485838C8E857815
:4034C0007477756D61565153595F656C707275787976777F89939699A0A9B1B3B2ADACB3BAB9B1A7A5A8A69A867A787871645D5E6772787D7E7874747B817E7A7B84909515
:40350000939299A4ABA9A09BA2A7A497867E838881706361697171706E6E6D6A6B706F69636871746E6568727776778295A09D8F898E938E80706A6B6E6F6C6A6C6F72731D
:403540007575736D615F656E7474716F6F6D6766717D838386919B9A8E85888B877C7374756B5D565A5F5C58585E626363646C75797D838D98A3AEB3B7BCBFC1C1C1BEBB7A
:40358000B9B4B3B3AFA593807978756754505B676763656B716F6C737F888C8C8F94989CA1AAB1AFA7A2A6A9A39688878E90887667646B706A605D636B6C6561646D716EAB
:4035C0006D6D6C69666B7277777A89989C948D8F93928A817D7B76706966656362656D72716A615F656A6E6E6F73777B7D7D8088939B9E9F9E9A938B8886817974777972FE
:40360000655D5F666861595C64655E555661707D858B94A0ACB3B9BCBCBBB6B3B6B5AFA5A0A4A9A6988B87857F726667737970615D646F726F6F76808990989D9C9A9CA635
:40364000AFAEA59C9B9C98908784888B877A6C686C726F6760626869625C5A606770787A78747173787771707B888A81787E88897F767A82847A6D676A6B67636466676426
:4036800061636667696C72797E817F7875767E878F94979A958F8C8B8B88807977746F67636768635C5D62666562666E78808991969CA3AAAFB1AFAFB5BDC3C1BAB6B6B8A3
:4036C000B5ADA39B97928A7D6F6B7178766F696D777D7A76777D878C8F908F8F939CA5A19690959D9E958C8C919085776F6E6E6E6E6C6B676768676562666C7071717276B1
:40370000787A7B7A7672737A7F7F79777E888A837C7A7B786D656262636263686B696664656A6F74797B7A7874717277808789888A8E908F8B888888837D76716A605A5CE0
:4037400060615E5D6366645F5F68747D8187939FA6A7A6A6A7ACB3B8B8B3AEAEB1B1ABA39F9C9A93897C706B6D73736D6A6F757268636E83908B82869097938F949DA2A01E
:403780009CA0A5A49F9C9D9B90807371726D656164696C696464666B70717173787C7C797778777778787B7C7979808586827F8181796B646769655F60696E6C6462666A36
:4037C0006A6A6E7374706D6F767E84898D8E8E92999B978F89878680756A6261656C706D6663686C665C575F6A70717887969D9FA3ADB4B4B2B6BDC0BBB7B7BBBAB1A8A5EE
:40380000A49F9388817F7C7A7874706E6E737777787D8385848283878B8D919598999A9A9A99999A9C9A90847C79756B605B5C5F5F5F5E5F61656A6C6D6F717373716F7254
:40384000797C7C7C7F828381808489878586878173645F6365635E6066696663666D74787B7B79747072777A7B7E848C9294949394979B9C96897D787772655A585E626017
:4038800060656C6D6A696D717473767F898F90959FA8ACAEB3BABEBFBDBAB5AFA79F98938F8A86817C797978747170717375797C7C7774767D83838287909798989DA5A777
:4038C000A39FA1A39E948B86847D736C6B69646061666A68666B7275736E6B6E70707376787A7A7C7E7E7C7C7E82868989837A727073736F69666767625C5C606465686D56
:4039000071706E6E73797D80838688898A8E92928F90949691867D78746E686565676764615F60656B6F72757A808485868A929BA1A4AAAFB2B4B5B7B9B6B3B2AFA8A19E90
:403940009D9A92867D7A787572727477797C8284807C7F888E8D898A939A989392969C9E9C99969391908E877A6E6C6E6D655B5961696A6665676B6E6E6C6967686D7375DD
:403980007575787C7C7A7C82898C8A86817D7A79756E66605E5D5D5C5D62696E7071716F6D6C6D6D6E71777F8484838790989B99959393908A82786F6B6B6D6E6B68686724
:4039C00066686D72757574777B7C7B7E8792989BA0AAB0B0ADAFB5B9B4ADA8A39D979393908A82808385827D7E848A89837F7D7D7C7A7B7D81878B8E8F90969FA5A5A19D70
:403A00009C9C989189817B76716E6C6C6D7073716C696C6F6C655E5C5E606164696F74787A7A7A7B80878A87817C7C7B787472716F6E6D6B686666696C6C696767686867D4
:403A4000676D7274777D848A8D8D909294959596948E867F78706B6B6E706E6B6B6F706E6C6C6F706F6E6F71727681909CA09FA3A9ADADACAFB5B8B3ADA8A5A29B9593944A
:403A8000928D898887878687888986807D7C7D7E7E7D7F83878B8D8F92959595969899958F898785817A74727373706F717272706F6E6A625B58595C5E62686F76787674C9
:403AC00074787D838685848383817D797676767472706E6B6766676866626060606263686D71757B83898A88878A8F9395959696938C847D79787979787673737473716F79
:403B000070716F6D6A6A6D747B848C93989B9C9D9E9FA4AAAEAFADA9A7A5A099949191918F8B87868A8F8F89827E7E7C7A777576797D81868A8D8F9193939292959797937D
:403B4000908E8C8984817F7E7C79787A7B787472716E68625F60646667686A6C6F727577797A7C7D7E7D7C7B7B7D7F80817F7B7775736F6B6663605C59595A5A59595D64C5
:403B80006C717577797A7B7D81868A8E9192918E8B89888887868583807B7775767877746E6A6767686A6E757D878F94969595999FA5AAABADB0B3B2ADA6A19F9E9B9897C6
:403BC00097989794918C878382817E797475797C7D7D8185898A8B8E92949495969896938F8B88847F7C7C7B7B7B7C7E7D79736F6B6864605E5E5E5F61626466686A6E716C
:403C000074757576787A7B7B7B7D7F7F7E7D7C7B78736F6C6A69686663605E5E6064696E71717274787C81868B90939594928F8D8C8C8C8B888582807E7B7B7C7D7D7A7401
:403C40006F6B6969696C737A7F8284888C8F92969BA1A6A9ACADABA9A39F9B98969496999A9894918F8C8783807F7E7D7D7D7E7F7F7F81838586898C8F9090909191908B75
:403C80008784807C767372737577797C7D7B777473726E6967676766636469737A7D7C7A787775747577787A7C7E7F7E79726C6868696C6E7172706B646162666A6E717465
:403CC0007677787A7D80807F808182807E7F818486878684817F7E808284848585827D7571707175797D82868B8E8E8C8A898889909BA3A6A4A1A1A1A2A19F9E9E9D9B9AC0
:403D000098938E8B8B8C8C8D8D8E9090908F9091908C8884817E7C7C8084878989888785827D79757371717476767677787878787675747372717273757574737272726FA5
:403D40006A67686C71777D81807C77716D6B6A6A69676664646465676A6E72777A7A7873706F6E6E707276787C81888F94979899979188807C7C7E7E7D7E7D7E7E7E7C7A53
:403D8000777575767676777B7F80808082878D959EA6A8A9ABABA9A59F9B989696959493918D888484888B8C909393918B85807E7D7E81858B92999A98948F8B8A898986D6
:403DC000817C79787776777A7B7A787675726E6C6C6B6866676E74787C7F8181807B72676062656B737C83837D787776757676777675736F686260636565666A6C6B686840
:403E0000696A696C6F6F7070747C848C9396948F88827D7C7E84898D929697928C857C726C6B6D7175797D8185898C8E8F9193979CA0A3A6A9A8A7A9A9A7A4A09D98928D44
:403E400088807B7C828688898E939493908C878381818182858A9092918F8C8888898B89837E7A76727071706D69686A6A6B6C717877736F6F6E6F717375757677736E6DF9
:403E800070767A7C7F81807E7C7A78747171706E6C686663616266696D6E6D6966676C717676716C69686C71767D84898C8E8F92949391919191908D89827B75716D6A6A15
:403EC0006E747A7F82828181828383828081848C959EA5A9ABABAAA8A3A09F9D9A99999B99908C8E91929394948F898683807E7D7F82878E949B9C9A96908E8D8C8C898716
:403F0000837F7B777472716D6A686A6D6C6A696C706F6D6E71767B7E7E7D7D7F7E7C7A787574797E84878685827C7773716F6B65615F5E6062636261605F5C5A5C60656866
:403F400066615B595D63697079828B919598979491919292918C847F7E7E7C7B7D7F7F7F7B78777A7A78787D7F7C7A7B7E808896A2AAADAEADACAAAAA6A4A5A3A3A19D9736
:403F8000918F90959999958F8A827E7D7F848A8F939698989491918F8E8D88838181848786827D7A78736E6C69696A6C6D6B66646566696C707474716D6B6D6F717172767D
:403FC0007B8185888B8A8684848480766C666464656B6F6C6A67656462616063656868615A56555C646C747B828A8E93999A98969696928E8A86828080808182848786837D
:4040000082807E7D7E80817F7C7978787A7F8894A1A9A9A5A2A0A1A2A19F9D9B95908E8E8C8A8D919493908E8B88868586868889898987898C8D8E93979793908F8E8A8528
:40404000817E7B756F6B6B7175797C7A746E6C6C6D707272717171706E6C6C6F6F7074797C7D7D7F828283827D78716B69696D727574726F6C6963605E5D5F6163635E581F
:4040800056575D646A72797D828585838284868686898D909091908F8E8E8D8C8B898785817C7A7B7E81807C7775777F899098A2A9A9A6A5A5A4A2A09C96928F8F8D8C8D0C
:4040C0008F919599999692908F8E8D8A8A8B89888685888C8C8C8B8B8E8D8A8885817F7E7B7672706E6F757A797673716D6A696A6B6B6B6B6B6B6B6A6867686C7070717370
:40410000777B7E818687827D797471706F71777C7F817E77706D6B6A6A6B6C6C6A66635E5B5D646C73777A7D7E7F82858A8C8B8D91969A9B9A958E8B8A8784848788878589
:404140008382807B7875706E6E71777D848A8F959B9E9E9C9D9F9D9A97979999979594948F8A8B90919190908E8C8A85817F7F8183848585868585888C8C8A8988878482CD
:40418000807F7D7A78787A7C7C7A7673737271727272716F6D6D6F6D68676766656A7075787C8186898988857F79777778797A7A77726D6A6A6A696A6B6A67666664605E3C
:4041C000606264676B7075787B7D7E8185888C91969B9B9896928D88878889898A8A8886827D78767573706E70767E878B8E949CA2A4A4A3A29E9C9C9FA2A3A3A19D98928A
:404200008E8C8D90918F8D8A8884817E7D7E81848380807F7F8185888A8A888582807F7E7C7B7A7977787C7D7A75737272706B6764636364676A6D6C6A6A6B6C6E71757CC9
:404240008286888785827E7C7C7E7F7F7F80817F7B76716E6C6B696561606163646568696B6C6F717475787B7F828385878C93999FA1A1A19E98908A8685858584817D78DF
:4042800074716F6D6B6A6B71787F8385888D949A9E9F9D989594979CA1A5A8A7A39E97928E8C8D8C88837F7D7A7A7B7E818588898682818183878A8C8B88868483828284ED
:4042C00086888785838181817E7A746E6A6764626162656A6F7475716D69686A6D7279808485858382818181838686817C79787876726E6A655F5A5757595D62676B6D6CF8
:404300006A6A6C6F7274777C7F818182868E969EA4A7A5A29C958D8987878684817D787371706F6E6E71757A7E82878C90969CA0A19F9B99989A9FA5A9ABAAA69F989390E7
:404340008E8C8B898682807F7E7F828588898784817F7F8083868787868583818082848584848583807F7F7E79746E696663615F5F62686E737776706966686D72777C806F
:4043800081808080818282828283817E7D7D7D7C7976726C655F5B5B5D62696F7374726F6D6E70727577797B7E8083868B92999FA3A3A09B928984828282817D7873706FF1
:4043C000717272727275797D828687898C9094969797959596999EA2A6A6A4A19C9793918F8C86807C79797A7D818487878888888786868686858686868686878888898871
:4044000088888785838383807B756E68646364676B6F72757776716A6665686D71767A7E80838483817F7E7C7C7B7978797C7F7F7C756D65605C5B5D60656A6D6F70706F87
:404440006E707376797A7B7D7E80838990969B9E9F9C97918C88868585827D777371717272706F6F71757A818688898A8E94999D9F9E9C9B9CA0A6A9AAA8A4A09B97948FD9
:4044800089837F7D7D7E7F8184858685848483817F7E7C7A7B7E8184878A8C8E8E8D8A88868482828384817A7269625E5E6166696C6E71747575726C6766696D72777C8147
:4044C00085898D8F908E8983818181807F7E7B756E6863605D5C5F646A6F727372706D69696A6B6D7074797D81878E959A9C9D9D9B9794918C87827E7B77757475767776B0
:404500007471707072757B818587888A8E959CA0A2A09E9EA1A4A6A8A8A59F99948F8C888482807E7C7C7E80828382817F7E7E7B787676787C81878D92979795928E8A861F
:404540008486898A87847F78726D6B6C6C6C6C6C6D6E6F70706D67626064696D737A838C9294938E88837F7D7D7E7D7B7B7976716C67636160616365696D6F6F6D6B696728
:4045800066676B6F747A808890949596979695959595928E8883807E7B7A7A7A7A797774716E6D6E71777E828484868A939DA3A5A4A19F9FA1A5A8A8A5A09A95908A8682BD
:4045C000807D7B797A7A7B7D7F807F7D7C7D7E7C787676797F8892999D9C9894908E8D8D8D8E8C88837F79726C686665646566686A6B6E70716E69636061666D7680898FF2
:404600009394928E8A868484868786817C77736E68646160616164676C717271706F6B676465686D747C848A8E9091939596989A9996908A847F7B777473727374736F6BA2
:40464000696B6F75797C80838483858B959DA1A19E9B9C9FA3A7A8A8A6A29E9A95908C87827D7A797A7C7E808082838484827F7A7674777F899196989896928F8E8F8F8E9A
:404680008E8D8B87817B7572706E6A676463636466696C6A66625E5B5D626B7680888F9495928C8583838383848585827E7A7774716E6A6764626365696C6B6965615D5C1F
:4046C0005F666F777F868A8C8C8B8B8C8D8F90908F8D8C8A8987868584827E7A746F6A6867686B70777D8287898D949CA3A7A7A49E9C9D9D9D9D9D9C9B99979694918C8788
:4047000083807D7A787778797B7E7E7D7A797978797C838C9397999895908C8888898A8A8B8B89878583807C77706A65626163676C6E6C6A68666363687079828A90939247
:404740008F8B86827E7E808487888582807E7B767068625E5E5F626568676562605E5F63696F767C81858687868484878C8F919191908F8E8C8B8985807B76726E6A6767C5
:40478000696D72777C808487898D92999FA2A09B9697999A9B9C9C9D9C9B9B9B98928B837B7672747779787676787A7B7B7B7D7D7F848A90969A9B9A979390909191908E6D
:4047C0008D8E8F8F8D888078706A64616164666768676563626061656D757D84898B8B8A88858180818486888A8B8C8A868079736B645F5B5B5D606364615D5C5C5D6065D9
:404800006C737A7E81838484838386898C8F939697989695928E88837D7974706B6867676A6E74797D818485898D93999E9F9E9B9CA0A2A4A6A6A5A4A3A1A09D958C827B02
:404840007674747574716E6D6D6E72767B7F8183868B9095999C9D9B96918E8E8E8E8E8F9192918D857C736D6763605F616365646463605E5F616469707880868B8D8F9056
:40488000908D8986878B8E9293928F8A847D7369625F5D5D5D5E5F61605E5B5B5D5E62686E7275797D818384848385898D919698989795928E8A85817E7A76716B68666769
:4048C0006A6E7275797B7E82878D92989EA3A4A3A5A9ACADA9A4A1A09F9F9D988F857C7775767675726E6A696C72797E82838384878D949BA0A3A29E9996969595949190BC
:4049000090918F8981786F68635F5C59555253565A5A5B5E6367696D747C848B92979997938F8A87888A8E918F8A837A70665D59585655565A5E61666A6B6C6F6E6E7075F3
:404940007B808183848688878482858C939593918F8C8A8784827E7A75716E6C6B6A6C727B86919A9F9E9A959292929290908F90959897938E8B87837F7E7F7D7B787372B5
:40498000717173737374787E868C9195979795908C8C8E9194969CA0A2A2A09B9690877F776D635C59595A60676C7071707071757C807F7C7B7C8083878D9296979592907B
:4049C0008C85807C7D80817F7D7E81807A767678746A615E5E5E5C5B6271818F928E8D9194908885898A847B74788083827E7A76726D6C6F757B7A76726F727A82898E92EE
:404A0000969CA19F9281757070706D6B6A6C748187848282827D75706F717576767879777777737070798996A0A19C979698969086807F80828389929DA5ABAAA0948B8948
:404A4000867E7161595E6A736E645F62696C71787D8080818485878B8D8F929697938D8A8D99A19F98908981796F66646873787069696D6E666061656A707A8A99A0A09D43
:404A80009897968F837C7E868A87827D7C7E81817C746C686A717B82827A726D707981888E94999A9890827E817F786C666560585A6A7C8686858785827C7871645C5D6401
:404AC0006B6D66616676889094989FAAAFACA9A9A39B98A0AEB4ADA2A3AFB7B2A2968F87765C47475A6C72695B5A646B6B676B788180756B6B767E817F7A76757A7D8591E5
:404B00009DA9ADA59076615B65747B7C7A7573716965677380817D818FA0ADADA59E9C9B9DA1A39D908C8E8B826F5E55585F5A4C43414751575E6361636D8195A6B5C0CDB7
:404B4000CAB49B89807C7A766F6969757E7B70615E5E61676E7678797A7C7974727272737C8B93918578798BA4B6B7B7BDBFBDB1AAABB0AF9F97A2ACA38A7164615B4D41C0
:404B800040494D44352929394E575B61646D7F929D9E9591969DA4A2998A828895A1A49B8C888F918B7C757E8A8F8E82756D5B4231354C636F7D8C959A9A9DA19B8A8394B6
:404BC000AAB2ACABB3B8B7A687664A37323D536564564D4A4C5151586F88999DA2ABB2AC9C8E8D969DA09D94898B9AA29A8168636A767B7880909A91745A5A6A746F6868F2
:404C00006A70767979746F6A71869FB4C1C5C8C8C5B9A79FA39A816756545B5E636E77725840383630344B677C898A87898F8E8276748397A09E948D8F9A9F9C9B9C9FA2E6
:404C4000A399897B777B7C756D646260544740425875847A68605E646B7A8A91979898959AA8B3B7AB9688898B7E6757575E6A72797D786E5E5D6F828A807880919CA1AF53
:404C8000BEC4BEAF9F948F8C8E8A7F767277807E6E5B4E4A4C5561645E534D56666C655A555E76878881859299A1ACB1AFA89A8F929DABB1AAA39FA1A1A09C8F7C6B656BF5
:404CC0006E64544B4C50565C6570737170757F898D8F9BA9ABAAA59E9895959393999C94877D78746D696761564B4C565E5B4F4E585F5F5D627688969B928C8F918D8D9A89
:404D0000B4CFDCD4C3AD91797481919A978E83766B645A4D4B5054555356636E798B9FA8A3999AA6A79C9192989E9F9C9795907B5941414F5A5A504E53575556606B716B07
:404D40005F554F5977A0BDC5BFB6B6B9AF9D92929FAAADA69A9188766866707A796F635D5754565555575966767A726967696D74828F959B9EA2A39A9492989B948A807E55
:404D8000837E7266615F5C58585A58555C6D7B7C73707E95A8B0ADA5A2A3AAB1B2B2B2B4B3B1B3B0A38D776E6D717577716049393334393D44505E6E7B889AA8AEAFABAB4F
:404DC000B3B2A3918C959D9A94928B7E6E64646767696C6C67625F5F605F5D5857595F6D797C79767D8D999D9A959DB1BDB29A8C90999B98908884868B8A827A746F685E69
:404E00005045414046525D666C6E6E7174797E858C98A9B0A99A8C8C96A0A4A19FA9B8BEB7A5938272635854514A464C58605D52505A6F818C95989A9D9A94908E8F909438
:404E40009C9F9C98938E867F7C8084817562585C656D74736D6C72797F8890938F8788959E9E91817C8696A7B8C0B8A58A706565655F575764747A71625B5C5E5E5D626CDC
:404E8000757B7F86919696928D88858996A4A6998784909C9D8F7B6E6D747A766A5E5B606A70706D6D6C6A67686F757A7E7E7A7D88949EA19E9D9FA7AFB1A99A8A7F7F89C8
:404EC000969380664F4238333541576E7E827B706767696C798A97A1A5A4A3A4A29EA0A6AAAAA49A96958D7B6B6B7B8F978D7B6E645B5453575E69798B999A908886878873
:404F00008E98A0A09B94959A988F888A908D7C685954534F4A46464E5B625D544D506176878F918A848C9CA6A399949EB3C1BDAC9E98999B9FA2998572696C716C61575556
:404F400059626D7B86887F7369615C59606D7A868C92989C9D9B9BA1A8ACABA395857E7A746C615C5F6364636363626060636E7D87878076717683919FADB8BCB8ADA4A202
:404F8000A299887C797A7874716E6B6765625D5A595F6F80877F76798793948E857E7D828D969B999AA4ADB1AB9E8F847C6E5D4F4A4F585D5953515A656D6C656068809ABB
:404FC000AAAB9E90898C949FA4A2A09E9FA1A2A2A1A09D988E7F736E6F6F64544A4D545B5E605F5E5F676F6C676A78878D89888D939495989FA7A69C959393969BA0A19BE3
:4050000090857D77716A64615F5A565A636B71767B7C7C7F89959B9E9FA0A2A19E9DA1A39F938478767B7E7B6E64646E79786D60595B6065696A68676D7C8D96938C8E967B
:405040009C9D9EA2A39F98979894887A706C6C69646160615F5D5E63676A6B6B696A707A848A8B8C8D8E8F939FACB2AFA8A3A09E9C9B978C7F7675777876726E6A686668C0
:405080006A6A6A6D757B7A77787A7A79787A8088919AA3A9A79E989A9E9B9186807B76706F7377797777746B5D53545C636564646A747F898C8B8B94A3AEB0ACAAA9A7A371
:4050C0009C948B8582807C746C6765645F59575B61676E767D807E7A7A7D7F7D7C8493A4AFB3B3AFACABA8A1968E8B8D8B8273665D544C4644474C4E4F535C6A7982848355
:4051000083888C8D8F8E8D929FACB1AEA8A4A2A4A49B8A7D7877736B666768666360616568666260636A75808789888A8F94959293989D9D9996989FA4A39E95887F7D7D98
:40514000786D666567645D56545456585B5F64696D71788089939B9FA4AEB7B9B4ABA29C989595948F857A7474746F635B5D646A6C6E737D858989888583848A91959699AD
:405180009C9EA2A6A9A8A3998C7A695C585A5D5D5752565D5F5A5555585A5E68767F8384827F80858E99A3A8A9ABAEB1ADA29DA0A4A29A948C7F6F635C5D63696C6D6E7131
:4051C0007576726E6D6F71706F73797D7F80838B91969896979C9C958D8B8C86796E6C7379797268615D5D5D5C5B5D6065696B70787F83868E9BA9B0B0ACAAAEB2B0A8A058
:405200009A999A999289817C797366554D55636C6F72787D7D7B7776798084838286909CA5AAACAAA39A948F89817A7674706B66676C6A61544D4F565C5F666D757D8588C4
:4052400086838388939FA6A8A9ADB1B2AEA59B9188817E7B756F6A6763626467676562616162626162666D767D83888D90919294959694908E8C8B898888888A8C8B88853C
:40528000817D78736F6B645C575556585B65707A80848A92999FA4AAAFAAA099969694918D8A8988898E918D82756A63605F61666D71706E71767879797B818995A2A9A91C
:4052C000A8AAACAAA3988E857D777373736F6A67686A6865666A6B67636161616268717D87919AA0A5A8A5A09B9A9DA09E99938F8C877F797776736A625F6061606062661E
:405300006765666B70757C82878A89868A949FA6A49E979189817C7D80838383838586827C76726F6A6259504A47474B5461717F8B91939193999FA3A5A5A6A5A098919038
:4053400091908B88898C897E736E6D6F707171727374757778797B82898C8E90969EA4A7A8A8A49A8F8783817F7E808280796E656365635C535057636D71717171737880F6
:40538000878D91969FA8ACAAA7A6A197887C787A80858988827B7674716C635F606567656162676C6E7073787D828383858A8F929597958F8A878687888582838686817953
:4053C00074767A7972675F5B564D474C5B6F818D94989BA1A9B3BABAB3AA9F948D8C8E908C857E787778787977716D70777F7F7B76716C6A6E787E7D797C8998A0A3A7AD49
:40540000AEA7978A827D77716F727677726C69686766646162687075777774727479828E979A9A9B9EA3A5A29F9C94898381817A716C6968696A68666566686A6D6F71738F
:405440007676737274787D7F7F7F828A93989793919193938E867E7B7D8081807E7B77736E6B6A6A6C6D6B675F5B606C787F83868A90979B9EA2A5A9AAA59D969494928D5D
:40548000867F7A75726F6B6665696F767B7D7D7A7574787F8585817F84909CA6AEAFACA49A908984807D7B7874716F6E6B65615D5B5C5F62646564656B737B8285878B9034
:4054C000969DA19F9A989CA29F948A878989837C75716E6C6966646467696F74767674757677747170757E85878583858A8F92939493918E8B8A86807B7978787673717179
:4055000071726E696666666464676A6D7177808C97A0A4A5A5A5A4A19E9A96928C8887898A86807C797776767674706E72777C7C7A7A7E82817E7F87939C9E9C9B9C9A9599
:405540008E888481818284837E776F696767686663616366686B6C6C6E737A818A949A9E9E9A9592949798938A8584858483817E7B78736C6663646668696B6E7377787778
:405580007472727476797D83888B8987858586888987858382818282807E7B7977726B67686B6D6C6B6866646469737F898F908F8F9094989C9D9C9B9A9A99958E878281B5
:4055C0008384837F797676767473747980878A8683838486888B909597989897958F8A898B8D8D8B8885827D78726A656464646263676C70737273787D8082868C919598B7
:405600009A9A98938D86807C7C7D7D7B787777797875706C6E70716E6A6A6C707477797875767C858C8F8D8C8B8985807E818586827D7A7A7A7B7A7A7C7D7C7B7B79767130
:405640006D6D6D6E6D6C6F777D7E7C7C81878C8F9397999A9B9C9D9D999289827F7D7B78767677787B7F8386878887878785817F7F7F7D7E838B9195969696969695928BD9
:40568000837C787776747375787875706B68686C7376736E6B6D737574747B858B8C8C9095999891857C7A7D807F7D7A75727174747473737577777675787B7D7F7F80806E
:4056C0007E7D7C7D7F7F7F7F82858686888987817B787877787878787878797978777674727274757372727374767B828A90979B9E9E9B96918F9196958C837F82888D9049
:405700008F8C867E757171757A7E7F7F7F82878B8D8C8B8D93999D9C968F8A878785817F7E7E7C7B7D8183807A73706C69676A6E6F6C6A6A6C6F74787D83878B8F93949268
:40574000908C867F7A7A7C7B7978797A7A79777574777B7A746E6C717777757473777C80817F7D7D7F8182817E78767879767272777D80838482807F7E7B7A7A7B7B78757E
:4057800073737575757575777E8790989C9E9D989595949292959690868080858785828383817C767373777C7F80807F7D7D7F858C9094979999948B8583828385888A8A5D
:4057C000868282878A867D75727377797A7E82827E7D7E7F7F7D7A7877797D807F7E7F8388888784817C7876787A78706967686C6F706D6B70798083817D797777787977FF
:4058000075747475787F82818082838280807F7D7D7E7F7E7A7776797C7F7E7B76726F72797D7C766E6B6F74787B80858D9192919192959999958F8A888889898888888A4B
:405840008985817E81888C8C8885868787888A8E92969A9D9B9187838485838283888B89837D7874706F73777775767C817E766F6C6B6A6867686A6D72777C7E7D7C7C7D5C
:405880007E81848483827F7B7A7B7D808487878482828282817F7E7F808081827F7A787979756F6B6A6A6A6D7177797977767777797A7D838C969FA4A39E968D837A757220
:4058C0006E6A6664666A70757A7D7E7C7D8387888A90989EA19E98918C8C8F939697999BA0A09B938D8986827B75706E7175797D828585868788847E7A7B81888C8B857E8D
:40590000766D68686C6F6F6A6567707B848887817A746F6D6C6B6F767F878B8D8A85807F7F7D7B7A7E84898A86817D7E8286868380808386847E7875736F6B6B6C6E7174FB
:40594000787A7C7C7B7A777677797A79767474757474777C7F8080848B8F8C857F7C7B7B7C7E80817F7C7C7F82807E7D7F8388919DA8ABA69E9995918C88848385878A8D71
:405980008F8E8A847B746E6C6D71757B808385868585888D92928F8C8C8F8F8B827A76757776737171706F7175797E828484827E79747172777D80818181828281807F804A
:4059C00082838587898B8D8D89817976797C79726C6C7176787877757678797977747475787A7A79797B81888A867F7875757A81888E9192908C878382848787827C75701C
:405A00006D69666667696B6B6C6F767E868D908F8E8F9395948F8986868A8C8B8988898A89857E7774747473727275797D7E7D7B7C8084888D919597948C827C7B7C7D7C64
:405A40007A78787979787574777C8182818081817D7977797C7F80808285888A8A8783807D7D7F82868886838180807D7977777A7C7E7F808181817F7B77757372717072D7
:405A8000777D8387898A8A8985807C797B82898E908D8A888888898A8B8A857C726B68696B6C6B696A6E747B8183878B8F929292939594918F8E90929494949494949596A2
:405AC000979690877E77726F6E6F73787C7F80807F8083858584827D777272788083817D787676787A7C7D7E7D78726D6A69696A6C6D6E707274777B7F838585827F7B7810
:405B000076777B7F8081848A8E8F8D8B8C8F92928F89827A726B67696F777B7A746E69696E757B808282807E7C7A7A7B7B7C7F848C92959596999A9A968E857D76716E6C54
:405B40006A696A6C707375797F878C8B87868B949997928D8B8B8C8C8C8E9193949597999690877F7B7A79777676746F6A686C7580888985817E7C7874717275787875720F
:405B8000717477797B7F8486858079757576787A7A7976737375797E83888A8C8B8884817F7D7D7D7E818383807C7C81888E908E8A857F79736E6B6B6C6D6F7172706E6EEB
:405BC0007276797C7F80818283868989878584868B90959BA0A4A5A0968B827E7D7A736C6562656A6E7173787E84898C8C8C8F94979795928E89888A8E92969A9D9F9E98D8
:405C00008F857E7874716F6F6F6C6968696F767E82858584827F7D7B7977777878777474777C81838281807E7A76726E6B6968696C6F717375797D80828383838484828034
:405C40007D7B7B7B7D7E8083878D90918F8C8985807B78797B7D7C7A75716D6C6F74797E7F7F7F818487888A8D9092918B858284888E919294959695938E877F766E69688D
:405C8000696A6A69696B72797F8385888A8D91959795928E8C8B8B8D8E8E8D8E8F8E8D8C8C8C8C88827A736E6966676D767E8384827E797674747577797A7875716F6F743E
:405CC0007B828787847F7A777574716E6C6D707274747474767A7E838687898A8A898784817F7F80808082858A8E9191908F8E8D8C8986817C77726E6D6D6E707072737538
:405D0000777A7D8081838382807E7E8083888E9294949393949595928D87817A746E696667696C6E717376787B7F83888C8F9294949392919191939597999A9A98959290DE
:405D40008D89837B746F6C6B6C6D6E7075797C7B76726F707274777776747374777B80848585848382807E7C7B7B7A7874706D6C6F747C8387878481808181807F7F7F7FB2
:405D80007E7D7B7C7F84898D8F90908F8D8B8A898885817D7975727070717374747373747678797B7C7D7D7C7C7D80848A8F93969798989896949089817A74706E6D6E6FB2
:405DC000707272716F6E6E6F72777E858C92969695939191908F90929395969695928E8A87827D7875716F707276797A78736F6D6D6F737575737270707174777B7F83850F
:405E00008585858586868685827F7A767576787A7B7B7B7C7D7D7D7D80858A8E8D89837C7775787E848A8D8E8E8E8E8E8D8C8C8D8C88837D7873706E6D6D6D6D6E6F707291
:405E4000757A7D7E7D7B79797A7C7F82878C91939495959699999690877E7873706F6E6F717372706D6B6E747C83898E9191908E8D8D8E8D8D8D8B8A8B8E929598999997ED
:405E800092887C736C6A6C6F7171706D6C6B6B6D70747678797876747373767A7F83868888898A8B8B8985827E7A75727275787B7C7A777575787C7F828483807C7775767C
:405EC000797D82888D9091908E8D8C8D8F8F8E8C8884817E7C7C7B7B7A767371707173777A7C7C7B79767575787D84888B8D9093979A9B9B98928A8077717072767A7C7C11
:405F000079746E69686B7074777A7C7F84898F949696969493908D8B8B8C8D9093969590877F7C7C7D7E7D7A76716D6B6968696B6D7071717274787D828382807C7B7B7CD4
:405F40007F83878988847F7A7777787B7E8182817E7A777575777B7F83858482807E7E7E7F808386898B8C8C8C8C8D8E8F908D8A8988898886827B75716F6E6D6C6C6E6F2E
:405F80007172747476787B7D7F818285888A8C9094989A9A969088807B79797B7C7C7A76726D6B6B6C6E7275797C80858B949CA09F9B96918D8B89898A8B8E9093969591C5
:405FC0008D8A8785817C746B64606063686B6D6D6D6D6E6F72767B7F807E7C79787A7D83888B8B87827C767272747779797876767576787A7C7D7D7C7D7D7E7F7F80818369
:4060000086888A8B8D9094989A9A9794908E8D8C8B8986817D7874716E6C6D6F71716F6D6C6C6D7074797E81817F7F81868B909397989795918C87848280807F7F7D7A76B0
:40604000726E6C6D6E707275787D848C94999A9793908E8E8E8F919395979898979593908D89847E78716B666463626262626263676C747C828584827E7B7A7D828990943F
:4060800094928E8A857F7A787876736F6B696A6C6F71727372727170707174797D818486878687888A8D8F908F8F8F8F90919293928F898179736F6D6E70706E6A666261BC
:4060C00063686F767B7D7D7E7F848B91979A9C9D9D9C98948F8C8B8D8F8F8C857E76706C6A696968666564676C727B879096989898999A9C9D9EA1A3A4A7A9A8A6A19D986F
:40610000928B8175695F585555565758595C61676D74797D7F8080807E7E7E7F807F7E7E7D7C7C7C7D81878C92989C9C9B9A979694918C86807B756B635F5F6265676B6E36
:4061400072757471707073787D838A8F9396999B9A9693929395999EA2A4A096887A6D5F5654585A59554F4E5053535254585C616770777D81858B8F959A9D9D9FA2A4A4DF
:40618000A09B968F867E777271747D868A8A898882786E6B6D70737578797B80878F95999A9A9A9999989491908D8A87888C8F8C89888785817E7F7C77726E727B858E90A5
:4061C0008D8C8F939492959B9B978F898785817F7D77727272716F6E6F6E6E71747879787B7F7D7770686566686D7071757A7F838488919CA3A5A29B9184786C5E57565A33
:406200006165697177797B7A797673727373747472727270707175808D969C9EA4ABACA69D92897F73686160636C767D83878D9091908C86807B7977747172787E807F80F7
:4062400084898D9091929392908D8C8F908E8A898C8E909391918D837D7E80807C7B7D7E7B7A7B7C838E9DA8A6A3A5A49E958C858080878A7E6E646163635E5D616A7476D7
:40628000767574767B7E7E7D77747674706A666A737C848B9195958F89857F756C65615E5D5E61625E5B5E605F5E5E636A6E706F6E70767773757B89979796959699958F2F
:4062C0008D888484848586878C93948F8B8C939A999081736E737B807E7C818C94908B8B929999948E8D9397959087808182827F77757A858E8E8B85869099978D888D924D
:40630000938B81818C9A9E9A979A9A948679726C696E767976706F757A797572767C7E73696A737875706B6B6F706B666363686E73787D848D949084786C686A6A68636223
:406340006A72726D6663635F56545F696E6C70797C7A787E8992948E898C9497918D949D9F978A8890928D8686898B8F9498958D84838A8A817878839092867977848C84BB
:406380007D79797D8081817F79777F8B92918C8B8F928D86828083868178767D888D8C8986868A8F8E8A8B949C9B928C8B8C8C8885868986817A6F676B7274767775737505
:4063C0007A77706A6E77766D63616A706D635C647073747D8C95968F857B706D6C6A696B6C6A6764646462676D6D6C6C6E777F858681838B8F89796F758188847A77849250
:40640000938C86868D98A19F92898C8E8F8A82858B8D8B87807C838F98948479787D7F7A777F8B959A948F9193928B8585878C8D89898A8581858B8B8889939B9A948E8DA5
:4064400092918D87848990938D878583807A7985979F95888380796E676C727672696567675E5759636C69615F5B57535362717572737E88847B7B858D8675645D666D6A85
:406480005D555E6C716C676D717171778085817A777E837B71727D8B938F868A979C9489838A93938D88838385888C8B8B8D8D8C898388979FA2A19A8F85817E7568677470
:4064C00086908D81859498958C8C969D9E938C8E918B7F7A7D838580838A8984848990897B71737F88909491908E8D877A767F8E93928C85837E71696C747D827F7773732C
:406500007174797B7D7A74706B61595E6A6F6B6567747E7D797B8794948C837B726E6E665E5B5E5D57535867747471767C796F67686B70727680898C8783878C8B83808A58
:40654000908C86848B939082798294989087848A959E9F9B8E84817D78747271747C88969C96949EA7A291868D9798918A8B91938C82848D9390898B929289838689837845
:4065800072788083878C9194908B857F7B7C81858B92948E81787C84837A7373746C615E646A6C6D6D6C67615D5C61696F6D69696F797D7C7D808284837E786F686261650B
:4065C0006E726B5E5961717A79767879736B676B717371757F888C8B8B8984838C9DA7A3978F939C9E927D747D8B8E878181858A8E908D86828386857F7C7C818788837D5B
:406600007F88918F85808DA1A89F9394999A948985878987828082848079777776716E747F848589929A9B958C8788898A8B8E908F8F8A838386867E736C6F74726E7073ED
:406640006F66626973746A5D5C667075737171717070777C7C797C878F8A7D7378858B8374696766625D5A5C646E6F665E5D6671777C82888C8B867E746D708192968D8009
:40668000818D999A908A919999918783837F7D8086847A777C807B73727C878A8886899093928E8E98A8B3B1A6A0A4A9A6988C888987807B797B808281817F7D7B7B7E805A
:4066C0008081878F8D857E7D818281838A92989EA2A19C938C888077706C6D6F706E6A60595B656E6F655B595C606061666C71757D868987848689878075707172716B6645
:406700006868635F5E636B74756E64636F7C7E7975797F7E777171767E89949EA29E9A9CA0A19C9693928E86818284837F7F848E91887D79797E858A8A88858889857E7933
:406740007B828A91989A9899A0A8A79F97979892867E8185847A707177756D68707D837D7B81888C8986888C8D8D8E9195989B9E9F9C948D87848079726B6A6E726F655E96
:40678000636F766F646066696561646A6C696B767E7D76747E87867B73777D7E797675756F645C5C6064676766666A717676747476797B79797A79787C858E9393929495CD
:4067C00096989A978E8380868C8A8480858F958F847E7E7E7D7E807F7B7E878E8C888A9099A1A5A9AAABACAAA6A0999594928C84808288898078747577767778797A7C8001
:40680000828182878C8D8B8A8B8F8F8E8E93979794918D867D7572716F6C6A6C6A635E5F656B6C676565625E5F666C6E6D7484908F847A777B7C79736C6B6F7477766F682A
:40684000676B6C68605B5C62676D737779797979777778797571747F8E969491969CA1A19FA19F988C878A8D8B84858B90908A8382838283878B8A857F7D7E7E7E81858BC3
:40688000939A9FA2A4A4A4A3A09D9A99948C8683827F78726F6F6D6B6C7075767273777B80848A9194939599999590939B9E9B96938F89827C7978756F6D6D685F575861A5
:4068C0006C716C65616062656B6D6C6D76838A877C7373798187877F78757778756F6E71726C60595C616466686C6F6F6E6E6C67676E797F7E797B87939795939395969733
:40690000948E88878A8C8B8A8E93948F858182807C78787E84837F7B79797C858E94989EA9B5B9B5AEA8A6A7A4A09B969492908B827A757575716965686F7477797A7C8009
:40694000868F9493949A9F9B938F939A9C969190908D847B75726F6C69635B5352586065635F6062626163656665666E777E7E7B77777C838A8C857C78787775706B6865E6
:40698000625D5A595B5D657076756D6867696D7073777B7F82878E969A9E9F9D9A9B9E9D968C858486898C8E8B8581848C8D847B797F898C847E7F8081818384868A96A395
:4069C000AAAAA6A5A7A9A6A19C9A9B99938E8A8680776F6A6A6E7273706D70757A7D7E838A9095999EA09E99979BA0A19D9A98958E857E787269646364625D5B5D60626142
:406A0000605F5D5B595B5E62676F787D7E7E7D7B76757B83898A86827E7A7673706B66605E5E5F6060636769645E5C5F63676E74787D82888C8F90919599979390908E8925
:406A400084858A8E909192908E8D8E908D8680808284807A797C808184898F959CA7ADADA9A5A19F9F9F9F9E9C9B9A9A9B9A958E86807B77726C666263686E73787F868D82
:406A8000949CA4A8A8A29B979695908A88888784807F7D786F68656564615F5D5C5A5854514F4F4F5157606B747A80868A887F75747D8586807A77787A7A766F6764666A02
:406AC0006B67615F6164635D5A5E6367696F79838B8F8E8D8F93959796938F8E8F8F8E8E92979A9A98938B86858A8D8A837D7B7C7E7D7C7D7E7D7D828990959A9D9E9C9BC8
:406B00009B97949395989898999C9E9E9B938B857F7B76716D686565686B6E737A848D97A1AAAEACA6A29E9C999592908E8B898888847C726D6D6E6D68605D5C5D5C585464
:406B40005254585E666E747C8183817F7C7A797B7D7B7776787B7C7A75706A6664666867615953525557575656575B63707A8084888E9395949393928F8A88888A8D9196E9
:406B8000989796938F8B898A8D908F8A827D7C7E80807E7C7D818A93989A9C9FA1A09F9B949091969A9B9A9B9D9F9F9C958F8986827F7A746E6866696F747A80868E98A206
:406BC000A8AAA8A4A09D999694918D898582807D766F6A67666664605F5F60605D58555352545B6670777B7D7E7F81817E7B7A797978787878787776726C6663666B6D68EF
:406C00005F5A595A5C5C5B5C5E646F787E82888D9092929294959594929191929493929090918F8B8684878D93948F89837F7B78777776767A828C93969796959697969265
:406C40009092989C9D9B9A9B9D9D98908A868585837C746E6C6B6A6A6B6D7076818F9BA2A5A6A6A5A4A19D9996928F8D8A87817A74716F6C696766656564635F5A5655589A
:406C80005D646A6F73777C7D7D7C7D7D7C7C7B7B7B7C7E7D7B78746E68636165696A655D56535253545353565F6B74797B80868A8C8E8F8F8F9090908F8F90929394949423
:406CC00093928F8B898B92999A93887F7A7775737172767E8790969999999A9C9F9D979397A1ABACA7A19E9D9A968F8B88878685837F7B7877767473717278828B8F9293C3
:406D00009598999A9C9E9C999694918D87817A736F6B67635E5C5D5D5E5D5C5A5A59585B5F6266696D72777C818586868583807C797774716F6C696665676C70706B635E1D
:406D40005A595857575A5D636D767D818385878B8D8E8D8E93999C9C9998989A9B9B9995908A868281828484807A767576797C7E82878E9498999795929190908D8A8D95E5
:406D8000A0A7A8A5A19E9D9D9C97918A827C756D69676766686B71777E88939A9C9B9A9A9B9B9A98979593919192928F8A847E7976716B635E5A5959595B5D6064686B6D6D
:406DC0007071717476777777777878797A7D7F838686837E78726C676464636059524D4A48494E525558606C787E7F7D7E838A92999EA1A1A09D9A95908F9193928F8B8A6B
:406E00008A888481828586827C7A7978777676797F88919597969393969CA2A3A3A5A9ADACA9A49F9B9896928C8A8C9094948F877F777373737475787D80808185898D9098
:406E400094989996918B878381807E7B7673706F6E685F595451515152555A5E6365676A6C6F757B7F808181818080828789857D7774747372706B6763605D5A5A5C5B5AB6
:406E80005C5E62697275726E6D6E6F747D87909799989A9D9E9C989494969CA1A29F9A979797938A807974727171717073787F8A9498999797999A9A99958E898C909292D0
:406EC000908E8F91949495949494918E867D76716C6B6C6F757A818C959897989A9D9FA1A2A2A0998A7C7777797C7D7C7874726E69625C5958595B5D5F68747979777678AB
:406F00007C8082827F7C7978797C7F7E78716C6B6C6E707272706E6E6E6B675F5651555E6467696B6E73787A79797F868C8F8F8F8F919292908D8C8C8C8E8F90908B8481CC
:406F40007E7D7D7C7A77767576777A7C7D808A969D9C9A99999999999B9B9A99979696989A978F878383848484817D7C7C7B787675777B81878C91949495969493939699AD
:406F80009C9D9994908C837B78787A78746F6A66605953515456585859595D6670787E8386858281808080838585837E7B7977777879756D67646261605F5C595656565979
:406FC0005B5F62666F7982888C8F8F8F8E8D8D90939597999C9A959292969A9C96897E79787876757576797F858788898C90959795908D9096999B9B9D9FA2A5A6A39D95BB
:407000008D87827E7C7E828484827D76706C6A6B6E73777E858B91959898999A9C9EA1A4A39F99938E8B888375696566696B68635E5E5F5F5D5A5754565F6B73767879797B
:4070400077787B7D7D7B7A7B7D7F7F7B736F717576736D6766676766625C5A5857565556595E646A717C88919595939292939392939493908C8A8A8D9296958D8481818470
:4070800085858482807D7B79797C8084878D959B9A96979B9E9E9D9D9E9E9F9F9E9A938C89898988878584837F7B7672706F7173777A7D838A919593908E8E9195999D9F33
:4070C0009D9B999797958E8279757675706B676564605B575656585C636C767D807F7D7A777473737577797C80827F7A77757575726C6968676663605F6062636263686DFE
:4071000071737476797C7F84888887858587898B8D8E8D8E9195989998938D89868584817D79777777797A78767679808A9195989B9C9C9998999A999898989897918C8B0D
:407140008D8F8E8A868280807D79746F6C6B6C6D7179848D9192928F8F9093969B9D9D9B9998968F88847F7975747372716F6B66605C5957565659616B757D7F7F7D7B79DC
:40718000767475787A7C7E80807F7D77726F6F7071706C69676564646362605E61666A6D70747A7D7F83898E9191919191919191929393918E8A857F7D7F8182807F7F8008
:4071C00081828282827E7A7777797D838A90969CA0A09F9E9E9F9E9C99979695938F8A86838180808181807E7C79736E6C6C6E72787F858B9091929495979A9C9E9F9F9C20
:4072000096908880797574777A7A7A7975726E6B665F5A575659606871797B7B7A7A7A7B7E818486888885827E79746F6D6D6E6E6B69666564656564626162676A6A6A6ED1
